{"author":"0x03801efb0efe2a25ede5dd3a003ae880c0292e4d","baseFeePerGas":"0x7","difficulty":"0xfffffffffffffffffffffffffffffffe","extraData":"0xdb830303038c4f70656e457468657265756d86312e34372e30826c69","gasLimit":"0x1c9c380","gasUsed":"0x1a22c9","hash":"0x7cb31dd554fe3ce0dce408f8f007781cdc8fa785e05215def3fd6b8a592a0348","logsBloom":"0x00002010000010000000008000000000000000000000000000000000008000000000000000000100000000000000000000240000002200000000000000008400100000000000000000000808002000001000000001000000020000000000000000000000020000200800000000000800400000000400000000000010100100000000200000000000000000000004010000200480000080010000000000001000000008001000000000000000000000000000000000009000010000000000000000020002100000040000200000000008000001080100000000000000000020800000000000000200000000800000000000000080000080000000001004000000","miner":"0x03801efb0efe2a25ede5dd3a003ae880c0292e4d","number":"0x1effe52","parentHash":"0xf2dffa1aa94436b4f83210e677c03efcaaa0087d747588c433759da1664bb560","receiptsRoot":"0xf2b01e8d2b4dfdcb3870e00f1c10f32e0e2017065eab226b7732160295aa323f","sealFields":["0x8418b0085b","0xb841fc4db8f707f43b981b440633d9dfbbe0f47ce6223b983ee1404b141eb3ed0fc4706bb0dd85e4e233333eea704432edb38587e906c94971dc6b83eaa802cebc3201"],"sha3Uncles":"0x1dcc4de8dec75d7aab85b567b6ccd41ad312451b948a7413f0a142fd40d49347","signature":"fc4db8f707f43b981b440633d9dfbbe0f47ce6223b983ee1404b141eb3ed0fc4706bb0dd85e4e233333eea704432edb38587e906c94971dc6b83eaa802cebc3201","size":"0x76b","stateRoot":"0x17ecfd65dbab225b4136cfad11e01d440c4472cf30ab9afdde7a90b18125d766","step":"414189659","timestamp":"0x62c0216c","totalDifficulty":"0x1edbb4300000000000000000000000481b6ea7c","transactions":[{"blockHash":"0x7cb31dd554fe3ce0dce408f8f007781cdc8fa785e05215def3fd6b8a592a0348","blockNumber":"0x1effe52","chainId":"0x2a","condition":null,"creates":null,"from":"0x8d629da433acc56451742b1de6fa86b320a79e0f","gas":"0x7a120","gasPrice":"0x12a05f20e","hash":"0x41997d2bae0408043a2db97491ccc15321cb255d2a8a6257ec360885501b862c","input":"0x202ee0ed000000000000000000000000000000000000000000000000000000000001dd17000000000000000000000000000000000000000000000000000000059387ff80","nonce":"0x1f1ca2","publicKey":"0x6f4d582f912f7cdc5ec8fb624f0e9ab105fd3a2b851c727fbf171b95367fc2e0d90ed29eca0226c25daa1371d33e18186dae2a6d8f2014190cf129d5fb015201","r":"0xc16068406f3c9ab67f6119a045b0addc945f28b3d2ec492af9d7f4fbc0ccfc6a","raw":"0xf8ad831f1ca285012a05f20e8307a120947588b002ae4c2b946af14e856d261fea7fb9f6cb80b844202ee0ed000000000000000000000000000000000000000000000000000000000001dd17000000000000000000000000000000000000000000000000000000059387ff8078a0c16068406f3c9ab67f6119a045b0addc945f28b3d2ec492af9d7f4fbc0ccfc6aa01acfc2aff516eb3c7727c959259bd08567156870723bf47d405d6ab6d428e12a","s":"0x1acfc2aff516eb3c7727c959259bd08567156870723bf47d405d6ab6d428e12a","standardV":"0x1","to":"0x7588b002ae4c2b946af14e856d261fea7fb9f6cb","transactionIndex":"0x0","v":"0x78","value":"0x0"},{"accessList":[],"blockHash":"0x7cb31dd554fe3ce0dce408f8f007781cdc8fa785e05215def3fd6b8a592a0348","blockNumber":"0x1effe52","chainId":"0x2a","condition":null,"creates":null,"from":"0x6d00fa6c117125faf9862e7e7863c56770337457","gas":"0x53317","gasPrice":"0x12410110e","hash":"0xa096a171cfe35a55e9222ad71288873df7a65417e537ca82f4a3028ad8f1a896","input":"0xbcbaf4870000000000000000000000000dd95f64dfa712bba1bbf49da4db03ffa16f0f690000000000000000000000000000000000000000000000000000000000000102","maxFeePerGas":"0x124101113","maxPriorityFeePerGas":"0x124101107","nonce":"0x2f","publicKey":"0xe49a2c0bd737be7667802a6953a8d7957f877431de71e2e2e2989bfc190d2ed4f122c4f6337aa3871a0015e8331721a74aea9d8ad65d7eb02c8753464f61741e","r":"0xfb1641f4310d140f415fdde0ddc968d23225b45ec35ca18d4d119b65a249a609","raw":"0x02f8b22a2f85012410110785012410111383053317947de9bec6702ec18955f822edcc85c88ec9bd99f680b844bcbaf4870000000000000000000000000dd95f64dfa712bba1bbf49da4db03ffa16f0f690000000000000000000000000000000000000000000000000000000000000102c080a0fb1641f4310d140f415fdde0ddc968d23225b45ec35ca18d4d119b65a249a609a07d6ac5dcae6c5abeccb770186f7eed8abd7bbca075843a7088e624ff0288bff8","s":"0x7d6ac5dcae6c5abeccb770186f7eed8abd7bbca075843a7088e624ff0288bff8","to":"0x7de9bec6702ec18955f822edcc85c88ec9bd99f6","transactionIndex":"0x1","type":"0x2","v":"0x0","value":"0x0"},{"accessList":[],"blockHash":"0x7cb31dd554fe3ce0dce408f8f007781cdc8fa785e05215def3fd6b8a592a0348","blockNumber":"0x1effe52","chainId":"0x2a","condition":null,"creates":null,"from":"0x6d00fa6c117125faf9862e7e7863c56770337457","gas":"0x618bb","gasPrice":"0x8c347c97","hash":"0xcdab46aaf49200c7e53cadcaebdd5f08d73f8b9a778017c9410a8136a0af9999","input":"0x46322c3700000000000000000000000000000000000000000000000000000000000001360000000000000000000000000000000000000000000000000de0b6b3a76400000000000000000000000000000000000000000000000000000000000000000000","maxFeePerGas":"0x8c347c9a","maxPriorityFeePerGas":"0x8c347c90","nonce":"0x30","publicKey":"0xe49a2c0bd737be7667802a6953a8d7957f877431de71e2e2e2989bfc190d2ed4f122c4f6337aa3871a0015e8331721a74aea9d8ad65d7eb02c8753464f61741e","r":"0xe846558554954d29bf5b29e055933a719315165c781519b61c6dfeb69da61335","raw":"0x02f8d02a30848c347c90848c347c9a830618bb947de9bec6702ec18955f822edcc85c88ec9bd99f680b86446322c3700000000000000000000000000000000000000000000000000000000000001360000000000000000000000000000000000000000000000000de0b6b3a76400000000000000000000000000000000000000000000000000000000000000000000c001a0e846558554954d29bf5b29e055933a719315165c781519b61c6dfeb69da61335a0699d40f9e33a50345bfd3e86be5493221fe32a10be79dc772f9963e30fe32a72","s":"0x699d40f9e33a50345bfd3e86be5493221fe32a10be79dc772f9963e30fe32a72","to":"0x7de9bec6702ec18955f822edcc85c88ec9bd99f6","transactionIndex":"0x2","type":"0x2","v":"0x1","value":"0x0"},{"accessList":[],"blockHash":"0x7cb31dd554fe3ce0dce408f8f007781cdc8fa785e05215def3fd6b8a592a0348","blockNumber":"0x1effe52","chainId":"0x2a","condition":null,"creates":null,"from":"0x6d00fa6c117125faf9862e7e7863c56770337457","gas":"0x63d2a","gasPrice":"0x908a9047","hash":"0x5d767c6b619a4b4125160d875443ad2c928e9c7f73ea1c9d20b4cecce3842e05","input":"0x59968288000000000000000000000000000000000000000000000003e7336287142000000000000000000000000000000000000000000000000000000de0b6b3a764000000000000000000000000000000000000000000000000000000000000000000000000000000000000000000000000000000000000000000ad6cb108d5790ed6c4","maxFeePerGas":"0x908a904a","maxPriorityFeePerGas":"0x908a9040","nonce":"0x31","publicKey":"0xe49a2c0bd737be7667802a6953a8d7957f877431de71e2e2e2989bfc190d2ed4f122c4f6337aa3871a0015e8331721a74aea9d8ad65d7eb02c8753464f61741e","r":"0x838c38ec6d9ec0196aa277d5c5d33cc2ac49f3d38c3f0e5cf27f1641470f0f1b","raw":"0x02f8f02a3184908a904084908a904a83063d2a947de9bec6702ec18955f822edcc85c88ec9bd99f680b88459968288000000000000000000000000000000000000000000000003e7336287142000000000000000000000000000000000000000000000000000000de0b6b3a764000000000000000000000000000000000000000000000000000000000000000000000000000000000000000000000000000000000000000000ad6cb108d5790ed6c4c080a0838c38ec6d9ec0196aa277d5c5d33cc2ac49f3d38c3f0e5cf27f1641470f0f1ba03693e3ec3dd81435733dbc3c2f12fc0d60b757f95b123c2c5730bbe94818c7d9","s":"0x3693e3ec3dd81435733dbc3c2f12fc0d60b757f95b123c2c5730bbe94818c7d9","to":"0x7de9bec6702ec18955f822edcc85c88ec9bd99f6","transactionIndex":"0x3","type":"0x2","v":"0x0","value":"0x0"},{"accessList":[],"blockHash":"0x7cb31dd554fe3ce0dce408f8f007781cdc8fa785e05215def3fd6b8a592a0348","blockNumber":"0x1effe52","chainId":"0x2a","condition":null,"creates":null,"from":"0x6d00fa6c117125faf9862e7e7863c56770337457","gas":"0x63d12","gasPrice":"0x908a9047","hash":"0x8c8804bf15e3b488c68ca5364599588ff2ac44c134872bde26291792edb51a58","input":"0x59968288000000000000000000000000000000000000000000000000a688906bd8b000000000000000000000000000000000000000000000000000000de0b6b3a764000000000000000000000000000000000000000000000000000000000000000000000000000000000000000000000000000000000000000000ad58ac9925d6a59136","maxFeePerGas":"0x908a904a","maxPriorityFeePerGas":"0x908a9040","nonce":"0x32","publicKey":"0xe49a2c0bd737be7667802a6953a8d7957f877431de71e2e2e2989bfc190d2ed4f122c4f6337aa3871a0015e8331721a74aea9d8ad65d7eb02c8753464f61741e","r":"0x15c774b479239bd97e20b4516883155baaa1bd16e5195da8eeef679d2e8c1e71","raw":"0x02f8f02a3284908a904084908a904a83063d12947de9bec6702ec18955f822edcc85c88ec9bd99f680b88459968288000000000000000000000000000000000000000000000000a688906bd8b000000000000000000000000000000000000000000000000000000de0b6b3a764000000000000000000000000000000000000000000000000000000000000000000000000000000000000000000000000000000000000000000ad58ac9925d6a59136c080a015c774b479239bd97e20b4516883155baaa1bd16e5195da8eeef679d2e8c1e71a045f958c18c67c893317b12149f033579e9d08782a2cd92c60f2165f60533d1bc","s":"0x45f958c18c67c893317b12149f033579e9d08782a2cd92c60f2165f60533d1bc","to":"0x7de9bec6702ec18955f822edcc85c88ec9bd99f6","transactionIndex":"0x4","type":"0x2","v":"0x0","value":"0x0"},{"accessList":[],"blockHash":"0x7cb31dd554fe3ce0dce408f8f007781cdc8fa785e05215def3fd6b8a592a0348","blockNumber":"0x1effe52","chainId":"0x2a","condition":null,"creates":null,"from":"0x6d00fa6c117125faf9862e7e7863c56770337457","gas":"0x63c85","gasPrice":"0x8c347c97","hash":"0x98c86ef23c44c4c3aa8f715a995d6613bdcfaf1c9211e649b0ce98475b52bc9a","input":"0x59968288000000000000000000000000000000000000000000000000a688906bd8b000000000000000000000000000000000000000000000000000000de0b6b3a764000000000000000000000000000000000000000000000000000000000000000000000000000000000000000000000000000000000000000000ad58ac9925d6a59136","maxFeePerGas":"0x8c347c9a","maxPriorityFeePerGas":"0x8c347c90","nonce":"0x33","publicKey":"0xe49a2c0bd737be7667802a6953a8d7957f877431de71e2e2e2989bfc190d2ed4f122c4f6337aa3871a0015e8331721a74aea9d8ad65d7eb02c8753464f61741e","r":"0x37655ff73f1a1913b068618d158c4542e7bc30ee9eea0b540d097aae01dd0304","raw":"0x02f8f02a33848c347c90848c347c9a83063c85947de9bec6702ec18955f822edcc85c88ec9bd99f680b88459968288000000000000000000000000000000000000000000000000a688906bd8b000000000000000000000000000000000000000000000000000000de0b6b3a764000000000000000000000000000000000000000000000000000000000000000000000000000000000000000000000000000000000000000000ad58ac9925d6a59136c080a037655ff73f1a1913b068618d158c4542e7bc30ee9eea0b540d097aae01dd0304a079476953bbec46e325d0df5c45cb4b0f9593841782e46b428d6ba0fdef7d1a47","s":"0x79476953bbec46e325d0df5c45cb4b0f9593841782e46b428d6ba0fdef7d1a47","to":"0x7de9bec6702ec18955f822edcc85c88ec9bd99f6","transactionIndex":"0x5","type":"0x2","v":"0x0","value":"0x0"}],"transactionsRoot":"0xb04ff3cb4db08f8b5858659137183e7b320ccc9e91d0447cbd0b1806e3992bfc","uncles":[]}
