{"author":"0x596e8221a30bfe6e7eff67fee664a01c73ba3c56","baseFeePerGas":"0x7","difficulty":"0xfffffffffffffffffffffffffffffffe","extraData":"0xdb830303018c4f70656e457468657265756d86312e34382e30826c69","gasLimit":"0x1c9c380","gasUsed":"0x27a5a","hash":"0xf2dffa1aa94436b4f83210e677c03efcaaa0087d747588c433759da1664bb560","logsBloom":"0x00000000000000000000400004000000000000000000000000000000008000000000000000000000000000000000000000000000000200000000000040000000100000008000000040000000002000000000000001000000008000000000000200000000000000000000000000000000400000000400000000000000100000000000200000000000000000000000000000000480000040000000000000000000000008001000000000000000010000000000200000000000000000000000000000000000000000040000000000000008000000000000008000000000000000000000000004000000000000000000000000000000000000000000000000000000","miner":"0x596e8221a30bfe6e7eff67fee664a01c73ba3c56","number":"0x1effe51","parentHash":"0x9b4e2842d9e37ae0229ed868b262926c62f2ff491227c0f22600c8adf9224f27","receiptsRoot":"0x09899091e754a947cdbeb53839dfc7bfdab7243c22fbfb7c85d1248d71b1cf7a","sealFields":["0x8418b0085a","0xb8416b7da17035afc9fedba1856f4cb11c0cbfe46cefe7a2614a428a14a1faa6a032493c74e1d15169b02ab676225df9c38c276bee3781df89b17ce750148b29e19201"],"sha3Uncles":"0x1dcc4de8dec75d7aab85b567b6ccd41ad312451b948a7413f0a142fd40d49347","signature":"6b7da17035afc9fedba1856f4cb11c0cbfe46cefe7a2614a428a14a1faa6a032493c74e1d15169b02ab676225df9c38c276bee3781df89b17ce750148b29e19201","size":"0x370","stateRoot":"0xe691e13dca5a8519b7856bd0dc0bb91de8dbc2b98fba7983d851f6e9befe3ce9","step":"414189658","timestamp":"0x62c02168","totalDifficulty":"0x1edbb4200000000000000000000000481b6ea7e","transactions":[{"blockHash":"0xf2dffa1aa94436b4f83210e677c03efcaaa0087d747588c433759da1664bb560","blockNumber":"0x1effe51","chainId":"0x2a","condition":null,"creates":null,"from":"0x8d629da433acc56451742b1de6fa86b320a79e0f","gas":"0x7a120","gasPrice":"0x12a05f20e","hash":"0xf84757225c23bb5f2ce2e1d22838cb87841a021cede102d91bc065e019636ea6","input":"0x202ee0ed0000000000000000000000000000000000000000000000000000000000047d3200000000000000000000000000000000000000000000000000036778ecc140c5","nonce":"0x1f1ca1","publicKey":"0x6f4d582f912f7cdc5ec8fb624f0e9ab105fd3a2b851c727fbf171b95367fc2e0d90ed29eca0226c25daa1371d33e18186dae2a6d8f2014190cf129d5fb015201","r":"0x47017fd807e9b67a917eb7f6307879d5091e302b38fdfe6d728a548f562e9c0b","raw":"0xf8ad831f1ca185012a05f20e8307a12094dcfc14bc921e189497d4e63f4de1b418b521b1c480b844202ee0ed0000000000000000000000000000000000000000000000000000000000047d3200000000000000000000000000000000000000000000000000036778ecc140c577a047017fd807e9b67a917eb7f6307879d5091e302b38fdfe6d728a548f562e9c0ba0059a3ab9bc29017131e8a2bba2cf43776f4429bb1826e1d53923b8206f8c7b88","s":"0x59a3ab9bc29017131e8a2bba2cf43776f4429bb1826e1d53923b8206f8c7b88","standardV":"0x0","to":"0xdcfc14bc921e189497d4e63f4de1b418b521b1c4","transactionIndex":"0x0","v":"0x77","value":"0x0"},{"blockHash":"0xf2dffa1aa94436b4f83210e677c03efcaaa0087d747588c433759da1664bb560","blockNumber":"0x1effe51","chainId":"0x2a","condition":null,"creates":null,"from":"0x55555513537ec7f03a0af928bce4b200e6d677dd","gas":"0xc350","gasPrice":"0x12a05f200","hash":"0x3fe8b8d4f0070a43fad435efe5b6c09ae692324b153d6ce831ad5070296a3305","input":"0x","nonce":"0x95e93","publicKey":"0xd0d8e15b4bb2902544cdd37348392ce22ce6f38e84e774cf77e9e83f89cb92e000f2b561c0fbaa1bccc8c196b6435ca13b02553922781cd254462c76a50d2138","r":"0xd86a2438834b5e029f256ee1bb1506474f8dd829c25232739d6ac4f89ef4eddf","raw":"0xf86e83095e9385012a05f20082c35094c27d2abf32dd6a649af3e587c65a0eb8cd31d93b870436a985071b778078a0d86a2438834b5e029f256ee1bb1506474f8dd829c25232739d6ac4f89ef4eddfa06bd33ae290d870a0fd08672252fb0ba5be3c19239fd1ba7044b06594df7ccdf5","s":"0x6bd33ae290d870a0fd08672252fb0ba5be3c19239fd1ba7044b06594df7ccdf5","standardV":"0x1","to":"0xc27d2abf32dd6a649af3e587c65a0eb8cd31d93b","transactionIndex":"0x1","v":"0x78","value":"0x436a985071b77"}],"transactionsRoot":"0xae820581d7341f2333a5e08707c37e8d0c7982dbb20154217af7138f391d1923","uncles":[]}
